{
  "contractName": "SceneOuverte",
  "abi": [
    {
      "constant": false,
      "inputs": [
        {
          "internalType": "string",
          "name": "_nomDArtiste",
          "type": "string"
        }
      ],
      "name": "sInscrire",
      "outputs": [],
      "payable": false,
      "stateMutability": "nonpayable",
      "type": "function"
    },
    {
      "constant": false,
      "inputs": [],
      "name": "passerArtisteSuivant",
      "outputs": [],
      "payable": false,
      "stateMutability": "nonpayable",
      "type": "function"
    },
    {
      "constant": true,
      "inputs": [],
      "name": "getTour",
      "outputs": [
        {
          "internalType": "uint256",
          "name": "",
          "type": "uint256"
        }
      ],
      "payable": false,
      "stateMutability": "view",
      "type": "function"
    },
    {
      "constant": true,
      "inputs": [],
      "name": "artisteEncours",
      "outputs": [
        {
          "internalType": "string",
          "name": "",
          "type": "string"
        }
      ],
      "payable": false,
      "stateMutability": "view",
      "type": "function"
    }
  ],
  "bytecode": "0x6080604052600c805534801561001457600080fd5b50610355806100246000396000f3fe608060405234801561001057600080fd5b506004361061004c5760003560e01c8063254b5678146100515780637cbd5bc3146100ce57806388f3f380146100d8578063d8984a731461017e575b600080fd5b610059610198565b6040805160208082528351818301528351919283929083019185019080838360005b8381101561009357818101518382015260200161007b565b50505050905090810190601f1680156100c05780820380516001836020036101000a031916815260200191505b509250505060405180910390f35b6100d6610239565b005b6100d6600480360360208110156100ee57600080fd5b81019060208101813564010000000081111561010957600080fd5b82018360208201111561011b57600080fd5b8035906020019184600183028401116401000000008311171561013d57600080fd5b91908080601f016020809104026020016040519081016040528093929190818152602001838380828437600092019190915250929550610244945050505050565b610186610282565b60408051918252519081900360200190f35b60606000600d54600c81106101a957fe5b01805460408051602060026001851615610100026000190190941693909304601f8101849004840282018401909252818152929183018282801561022e5780601f106102035761010080835404028352916020019161022e565b820191906000526020600020905b81548152906001019060200180831161021157829003601f168201915b505050505090505b90565b600d80546001019055565b600c541561027f57806000600c54600c03600c811061025f57fe5b019080519060200190610273929190610288565b50600c80546000190190555b50565b600d5490565b828054600181600116156101000203166002900490600052602060002090601f016020900481019282601f106102c957805160ff19168380011785556102f6565b828001600101855582156102f6579182015b828111156102f65782518255916020019190600101906102db565b50610302929150610306565b5090565b61023691905b80821115610302576000815560010161030c56fea265627a7a72315820d9ea537fe2ac4610b855f19196865b923dba691cedd16d9ba4c1e8ba89d885b864736f6c634300050c0032",
  "source": "pragma solidity ^0.5.11;\n\ncontract SeceneOuverte {\n    string[12] passagesArtistes;\n    uint creneauxLibres = 12;\n    uint tour;\n    \n    function sInscrire(string memory _nomDArtiste) public { \n        if(creneauxLibres > 0){\n            passagesArtistes[12-creneauxLibres] = _nomDArtiste;\n            creneauxLibres = creneauxLibres - 1; // creneauxLibres -= 1\n        }\n    }\n    \n    function passerArtisteSuivant() public {\n        tour += 1;\n    }\n    \n    function getTour() public view returns (uint) {\n        return tour;\n    }\n    \n    function artisteEncours() public view returns (string memory) {\n        return passagesArtistes[tour];\n    }\n}",
  "sourcePath": "/home/bobby/exercices/Semaine5/ERC20_with_truffle/contracts/SceneOuverte.sol",
  "compiler": {
    "name": "solc",
    "version": "0.5.12+commit.7709ece9.Emscripten.clang"
  },
  "schemaVersion": "3.0.18",
  "updatedAt": "2019-11-13T08:33:18.599Z",
  "devdoc": {
    "methods": {}
  },
  "userdoc": {
    "methods": {}
  }
}